:100000000C942A000C9434000C9434000C943400AA
:100010000C9434000C9434000C9434000C94340090
:100020000C9434000C9434000C9434000C94340080
:100030000C9434000C9434000C9434000C94340070
:100040000C9434000C9434000C9434000C94340060
:100050000C94340011241FBECFE5D8E0DEBFCDBF25
:100060000E9436000C94C7000C940000DF93CF93DD
:10007000CDB7DEB7EAE3F0E01082AAE3B0E0EAE34E
:10008000F0E0808181608C93AAE3B0E0EAE3F0E0E5
:10009000808182608C93E8E3F0E08EE08083E6E389
:1000A000F0E08081869586958695882F90E0817016
:1000B0009070009751F5E6E3F0E080818695882FF7
:1000C00090E081709070982F81E089278823E9F46F
:1000D000E6E3F0E0808186958695882F90E0817038
:1000E0009070982F81E08927882379F4ABE3B0E002
:1000F000EBE3F0E0808181608C93ABE3B0E0EBE375
:10010000F0E0808182608C93CACFE6E3F0E08081EA
:1001100086958695882F90E081709070009779F48D
:10012000ABE3B0E0EBE3F0E0808182608C93ABE383
:10013000B0E0EBE3F0E080818E7F8C93B0CFE6E31C
:10014000F0E080818695882F90E081709070009714
:1001500079F4ABE3B0E0EBE3F0E0808181608C9375
:10016000ABE3B0E0EBE3F0E080818D7F8C9397CF41
:10017000ABE3B0E0EBE3F0E080818E7F8C93ABE308
:10018000B0E0EBE3F0E080818D7F8C9388CFF89432
:02019000FFCF9F
:00000001FF
