:100000000C942A000C9434000C9434000C943400AA
:100010000C9434000C9434000C9434000C94340090
:100020000C9434000C9434000C9434000C94340080
:100030000C9434000C9434000C9434000C94340070
:100040000C9434000C9434000C9434000C94340060
:100050000C94340011241FBECFE5D4E0DEBFCDBF29
:100060000E9436000C948B000C940000DF93CF9319
:1000700000D000D0CDB7DEB7EAE3F0E010821C82FA
:100080001B8225C0AAE3B0E0EAE3F0E08081282FDC
:1000900081E090E00B8002C0880F991F0A94E2F77C
:1000A000822B8C93ABE3B0E0EBE3F0E08081282F70
:1000B00081E090E00B8002C0880F991F0A94E2F75C
:1000C000822B8C938B819C8101969C838B838B816B
:1000D0009C8188309105B4F21A82198216C0ABE374
:1000E000B0E0EBE3F0E08081282F81E090E0098030
:1000F00002C0880F991F0A94E2F7809582238C939F
:1001000089819A8101969A83898389819A8188302D
:0A01100091052CF3B4CFF894FFCF53
:00000001FF
